:020000040000fa
:10000000f0ff0320e1830100e7ba010003cb010008
:10001000a3d30100fbd7010043e101000000000071
:100020000000000000000000000000008bab010099
:10003000fbce0100000000008bab01002dec0100a5
:100040008bab01008bab01008bab01008bab0100d4
:100050008bab01008bab01008bab01008bab0100c4
:100060008bab01008bab01008bab0100d1e2010037
:100070008bab01008bab01008bab01008bab0100a4
:100080008bab01008bab01008bab01008bab010094
:100090008bab01008bab01008bab01008bab010084
:1000a0008bab01008bab01008bab01008bab010074
:1000b0008bab01008bab01008bab01006503020031
:1000c0008bab01008bab01008bab01008bab010054
:1000d0008bab01008bab01008bab01008bab010044
:1000e0008bab01008bab01000000000000000000a2
:1000f000000000008bab01008bab01008bab01005b
:100100008bab01008bab01001d2e01001d2e0100e9
:100110001d2e01001d2e01008bab01008bab0100d9
:100120008bab01008bab01008bab01008bab0100f3
:100130008bab01008bab01008bab01008bab0100e3
:100140008bab01008bab01008bab01008bab0100d3
:100150008bab01008bab0100000000000000000031
:10016000000000000000000000000000000000008f
:1001700000000000000000008bab01008bab010011
:100180008bab01008bab01008bab01008bab010093
:10019000000000008bab01008bab01008bab0100ba
:1001a0008bab01008bab01008bab01008bab010073
:1001b0008bab01008bab01008bab01008bab010063
:1001c0008bab01008bab01008bab01008bab010053
:1001d0008bab01008bab01008bab01008bab010043
:1001e0008bab01008bab01008bab0100fde201008a
:1001f0008bab01008bab01008bab01008bab010023
:100200008bab010000000000000000008bab010080
:100210008bab01008bab01008bab010069f50100da
:100220008bab01008bab01008bab01008bab0100f2
:100230008bab01008bab01008bab01008bab0100e2
:100240008bab01008bab01008bab01008bab0100d2
:100250008bab01008bab01008bab01008bab0100c2
:020000040000fa
:10026000f8b500bff8bc08bc9e46704729cb01001a
:10027000f8b500bff8bc08bc9e46704705cb01002e
:020000040000fa
:080280004cf400000100000035
:020000040000fa
:100288008bffff9d7fffff9173ffff8567ffff795e
:100298005bffff6d4fffff6143ffff5537ffff49ce
:1002a8002bffff3d1fffff3113ffff2506ffff193f
:1002b80000faff0d00efff0200e3f50000d6e900a9
:1002c80000000000000000004ce6e74dc6ffffcd2f
:1002d800c4ffffca48e6e64a04feffc1000087ffe4
:1002e800ff4100f0ffae000073ffff2e00ddff9b13
:1002f800000060ffff1a00caff8800004cffff07dc
:1003080000b7ff75000039fff30000a4ff6200008a
:1003180025ffe0000091ff4f000012ffcc00007e97
:10032800ff3d000001fcb90000000000000000aa29
:10033800ff7e0000002effe2000000000000000029
:100348000000ddff4b00000061ffaf00000000006f
:100358000000000011ffff1900000095ff7c00005d
:100368000000000000000044ffe600000000c8ff95
:100378004a00000000000000000077ffb300000002
:1003880004f7ff17000000000000000000aaff812a
:100398000000002effe5000000000024ffffffff23
:1003a800ffffffffffffffffffffffff980024ff96
:1003b800ffffffffffffffffffffffffffffff98ac
:1003c800000210101044ffe610101010d5ff5b104b
:1003d800101009000000000067ffb500000006fad1
:1003e800ff2100000000000000000099ff850000c8
:1003f8000031fff000000000000000000000caff0c
:100408005400000061ffc000000000000000000070
:1004180004f7ff2400000090ff9000000000004057
:10042800ffffffffffffffffffffffffffffffffd4
:10043800940040ffffffffffffffffffffffffffed
:10044800ffffff940011444444a7ffb344444459b8
:10045800fffd48444444270000000000aeff700040
:10046800000046ffd900000000000000000000d98d
:10047800ff4400000075ffaa000000000000000013
:100488000007fcff17000000a4ff7b00000000002d
:100498000000000030ffeb00000000d3ff4c00001c
:1004a800000000000000005bffbe00000006fbff2c
:1004b8001d00000000000000000086ff9200000000
:1004c80031ffee0000000000000000000000000006
:1004d800000068ff84000000000000000000000029
:1004e8000068ff8400000000000000000000001bfe
:1004f80081ff9921070000000000000e8be9ffff33
:10050800fffffffbca7219000016d9ffffffffffac
:10051800ffffffffff9f0000a2ffffde7c9bffa401
:10052800628dd0ff430006f5ffd3090068ff840001
:1005380000002102001dffff7e000068ff8400000c
:100548000000000014ffff92000068ff8400000014
:1005580000000000dcfff22c0068ff8400000000af
:1005680000000061fffffaa7a4ff8400000000005c
:1005780000000079fcffffffffc74b0600000000ea
:100588000000002ca8faffffffffe9800c00000024
:10059800000000001297ffffffffffe12a000000a4
:1005a8000000000068ff9662c9ffffe00500000038
:1005b80000000068ff84000199ffff4e0000000062
:1005c800000068ff8400002cffff7200000000009c
:1005d8000068ff84000039ffff67166510000000ff
:1005e80068ff84001dcafffe2624fffcc99878a86e
:1005f800ffcdbdf8ffff940024ffffffffffffffc3
:10060800fffffffb8a0300013e8abee0f5feffed17
:10061800ba7c2000000000000000000068ff840091
:10062800000000000000000000000068ff840000d7
:100638000000000000000000000068ff84000000c7
:10064800000000000000000000327c3f00000000b5
:100658000000000000004cc8f5eda81e00000000d6
:1006680000000014f1ff4a00000000004bfeffffed
:10067800ffffe31600000000000090ffc00000002c
:10068800000000d7ffd05469f0ff9400000000007c
:1006980020f9ff3700000000002dfffe2400006154
:1006a800ffee0400000000a4ffac00000000000002
:1006b80060ffd50000000efdff2a0000002ffefba2
:1006c800260000000000007cffb400000000e7ffe7
:1006d80049000000b8ff970000000000000085fff7
:1006e800a900000000daff54000042fff4180000df
:1006f80000000000007effaf00000000e1ff4d0099
:1007080001cbff83000000000000000065ffcb0064
:10071800000005f9ff350057ffeb0e2db3eae7a7f8
:100728001f000035fff90f000043fffa0c05dbff3f
:100738006f26f2ffffffffe71a0001e1ffa20f2477
:10074800d3ffb7006bffde06abffc1191fcbff9ebf
:1007580000005efffffffffffc390ce9ff5a0af8b3
:10076800ff31000036fff509000077f7ffffec576f
:100778000080ffce013afff000000000eeff3c00d1
:1007880000000e3932050016f3ff46005affd1006b
:10079800000000ccff5f000000000000000094ff94
:1007a800bc000067ffc600000000bfff6e0000002d
:1007b8000000000023fafe33000066ffc8000000b6
:1007c80000c2ff6d00000000000000a8ffa70000a5
:1007d8000058ffd800000000d4ff5f0000000000b0
:1007e8000033fefa2300000035fff805000006f785
:1007f800ff3e000000000000bcff93000000000660
:10080800f3ff4d000056fff80b000000000047ff03
:10081800f31600000000009cffe45c62ebffa900f7
:100828000000000001cfff7f0000000000001ceb6b
:10083800fffffffff12500000000005bffe80c0050
:1008480000000000000026b4f3f1b62c0000000000
:10085800000000001b8dd5f5f8dc951e0000000097
:10086800000000000000000038efffffffffffff5f
:10087800f0350000000000000000000006e0fffe68
:10088800a35856a9ffffd80100000000000000008f
:100898000042ffff8e00000000a7ffff2e000000af
:1008a80000000000000061ffff3e0000000059ff4b
:1008b800ff490000000000000000004cffff4d0051
:1008c8000000006fffff360000000000000000007d
:1008d80017f8ffab00000008daffe604000000008c
:1008e80000000000000094ffff570015c2fffe54ef
:1008f800000000000000000000000009d0fff780a1
:10090800ebfffa5b000000000000000000000000a0
:100918000023f5ffffffd8380000000000000000aa
:10092800000000000017adffffffff5f00000000a0
:1009380000000000000000000033eaffffbff5ffe1
:10094800fc5e000000000040ffff6e000034f2ff74
:10095800fa68003df2fffd650000000090ffff25ea
:100968000001d3ffff4e00000038f0fffe6c0000ce
:1009780002e0ffcd000032ffffac000000000033b2
:10098800edffff740056ffff6900005cffff6f007a
:1009980000000000002eeaffff88e5ffe0070000e6
:1009a80060ffff61000000000000002ae7ffffff72
:1009b800fe4b00000043ffff9f0000000000000006
:1009c800003effffffbb0000000008f1fffb4b00eb
:1009d800000000000157e8ffffffff7d0000000056
:1009e80071ffffffac674b5c86d8fffff87ce7ff21
:1009f800ff770000000084fdffffffffffffffff00
:100a0800c02f002becffff71000000002e95d3f3e0
:100a1800fae8cf903f0000000034f1ffff6b0000c0
:100a280004feffc100f0ffae00ddff9b00caff8897
:100a380000b7ff7500a4ff620091ff4f007eff3de5
:100a480000000002bfffc10100000078fff9250087
:100a580000001ef5ff8f000000009cfff817000043
:100a68000017f9ff9e0000000071ffff4000000022
:100a780000c6ffe8020000000efcffa50000000011
:100a880046ffff690000000075ffff390000000005
:100a980099ffff1400000000b3fff70000000000fa
:100aa800c2ffe90000000000c9ffe20000000000ea
:100ab800c4ffe80000000000b8fff50000000000d7
:100ac8009fffff11000000007dffff3500000000c0
:100ad8004effff650000000016feffa200000000a8
:100ae80000d1ffe702000000007dffff4800000082
:100af8000020fcffad0000000000a6fffb1800006e
:100b0800000024f8ff9400000000007efffc300085
:100b180000000003bdfcc00001c2ffbe02000000cf
:100b28000025f9ff77000000000090fff51d000088
:100b3800000017f8ff9a0000000000a0fff8170057
:100b480000000041ffff700000000002e9ffc6003e
:100b580000000000a6fffc0e0000000069ffff4532
:100b68000000000039ffff740000000015ffff9827
:100b78000000000000f8ffb30000000000eaffc119
:100b88000000000000e2ffc90000000000e9ffc308
:100b98000000000000f6ffb70000000012ffff9ef3
:100ba8000000000035ffff7c0000000066ffff4ddd
:100bb80000000000a3fffe1600000002e7ffd000bf
:100bc80000000049ffff7b00000000aefffc1f0093
:100bd800000018fbffa50000000095fff8240000a6
:100be8000030fcff7d00000000c0fcbd03000000d9
:100bf80000000000003bffff9a000000000000001a
:100c08000000000020ffff8100000000000000003d
:100c180000000006feff6800000000000000000061
:100c2800000000eaff4e00000000000042742800a7
:100c38000000cfff3500000d52820086ffffdd92d5
:100c480047bbff4372bdfafff903acffffffffff8d
:100c5800ffffffffffffffff2324445a7086c5fff5
:100c6800fff18f7a644e3809000000000fe0ffeab8
:100c7800ff5a000000000000000000a5ffc168ff47
:100c8800f122000000000000005cffff5508e8ffab
:100c9800c905000000000020f1ffe4040079ffff0f
:100ca80089000000000085ffff7c00000ff1ffecc9
:100cb80015000000000046ca1600000084911200ca
:100cc800000000000000000000000000000000001c
:100cd8000000000000000000000088ffa0000000e5
:100ce80000000000000000000088ffa000000000d5
:100cf800000000000000000088ffa00000000000c5
:100d08000000000000000088ffa0000000000000b4
:100d180000000000000088ffa000000000000000a4
:100d2800000000000088ffa000000000000080ff15
:100d3800ffffffffffffffffffffffff9880ffffa1
:100d4800ffffffffffffffffffffff982244444420
:100d58004444a7ffb9444444444428000000000028
:100d68000088ffa000000000000000000000000054
:100d780088ffa000000000000000000000000088bc
:100d8800ffa000000000000000000000000088ff35
:100d9800a000000000000000000000000088ffa084
:100da80000000000000000000000000088ffa00014
:100db80000000000000000000058ffffab007dffae
:100dc800ff7400a9ffff2a00d8ffd7000bfdff81a1
:100dd800003cffff250071ffc50000a8ff6200006e
:100de800364444444444441eccffffffffffff74d5
:100df800ccffffffffffff744ce7e54bc6ffffccbe
:100e0800c4ffffca49e6e5470000000000000002f1
:100e1800e4ffad0000000000000043ffff500000a9
:100e28000000000000a0ffed060000000000000a1e
:100e3800f2ff96000000000000005affff39000092
:100e48000000000000b7ffdc0000000000000017f1
:100e5800fcff7f0000000000000071ffff2300007e
:100e68000000000000ceffc5000000000000002bbd
:100e7800ffff680000000000000088fff912000072
:100e88000000000001e2ffaf000000000000004188
:100e9800ffff52000000000000009effee07000068
:100ea8000000000009f1ff98000000000000005851
:100eb800ffff3b00000000000000b5ffdd00000060
:100ec8000000000016fbff81000000000000006f1a
:100ed800ffff2500000000000000ccffc700000055
:100ee8000000000029ffff6a0000000000000086e3
:100ef800fffa1300000000000000000000000000de
:100f080058b8ebfae5b55400000000000008b2ff3d
:100f1800ffffffffffffad07000000009fffffd2ac
:100f28006c4c66c9ffff9c00000037ffffbb070041
:100f3800000003a9ffff370000a2fffd2100000009
:100f4800000012f4ffac0001edffbd00000000003e
:100f58000000a3fff50827ffff7f00000000000046
:100f68000064ffff4150ffff530000000000000035
:100f780035ffff6a6cffff37000000000000001912
:100f8800ffff8e7dffff270000000000000009ff23
:100f9800ff9e85ffff1f0000000000000001feff0c
:100fa800aa82ffff1f0000000000000001ffffab46
:100fb80077ffff270000000000000009ffffa3687b
:100fc800ffff370000000000000019ffff9144fff9
:100fd800ff530000000000000035ffff751afffff7
:100fe8007f0000000000000062ffff4b00d8ffbd3b
:100ff80000000000000000a1fffe120088fffc1f97
:10100800000000000010f2ffc100001cf9ffb90742
:1010180000000003a5ffff540000007cffffd16a19
:101028004b65c7ffffb9010000000198fffffffff4
:10103800ffffffc51000000000000048afe4faee13
:10104800c06403000000000000000000003eeaff4a
:10105800a80000000068faffffa800000596ffff3f
:10106800ffffa80014c0ffff93daffa81be0fffef4
:101078007800e6ffa802b9f4510000edffa80014bb
:101088002e000000efffa8000000000000f0ffa8fd
:10109800000000000000f0ffa8000000000000f0c1
:1010a800ffa8000000000000f0ffa80000000000fa
:1010b80000f0ffa8000000000000f0ffa8000000fa
:1010c800000000f0ffa8000000000000f0ffa800ea
:1010d8000000000000f0ffa8000000000000f0ff82
:1010e800a8000000000000f0ffa8000000000000b9
:1010f800f0ffa8000000000000f0ffa800000000ba
:101108000000f0ffa8000000000000f0ffa80000a9
:101118000000002f8ad0ecf9e6b459030000000063
:1011280017a7feffffffffffffffc212000019e72e
:10113800ffffda81575078e2ffffbf0000009ff4fd
:101148006a030000000009bfffff4a0000092700ea
:1011580000000000000035ffff95000000000000bf
:10116800000000000003feffb300000000000000c4
:101178000000000006ffffaa0000000000000000b9
:101188000000002affff89000000000000000000a6
:1011980000007dffff3b0000000000000000000091
:1011a80012edffcd0100000000000000000000adbe
:1011b800fffe40000000000000000000007dffff6f
:1011c8008b0000000000000000000063ffffbb056b
:1011d80000000000000000000054fcffcf0e0000db
:1011e800000000000000004bfaffd51500000000c9
:1011f800000000000044f7ffd818000000000000bd
:101208000000003df5ffda1a0000000000000000b1
:101218000037f2ffdc1b0000000000000000003176
:10122800efffde1d0000000000000000002cecffb6
:10123800f8634444444444444444442890ffffff32
:10124800ffffffffffffffffffff9890ffffffff7c
:10125800ffffffffffffffffff9800000000095f8f
:10126800a8dcf1faeac27b15000000016be9ffff78
:10127800ffffffffffffec41000045fffff9ae6ce9
:10128800514e6fcefffff21b000090951900000031
:101298000000008dffff8800000000000000000033
:1012a80000000bfbffbd0000000000000000000074
:1012b8000000f0ffc2000000000000000000000075
:1012c80027ffff97000000000000000000000ac090
:1012d800fffb2f00000000000000092869dcfff177
:1012e80056000000000060ffffffffffe08a2000bb
:1012f800000000000060ffffffffffedb862040080
:10130800000000001944444d6495e5ffffcc15002a
:101318000000000000000000000686ffffb5000086
:1013280000000000000000000000b8ffff2a0000d5
:1013380000000000000000000066ffff61000000e0
:10134800000000000000000056ffff6b00000000d6
:101358000000000000000077ffff500000000000c0
:10136800000000000002d2fffd1d643a00000000ea
:101378000000000497ffffb200a8ffdf99695048fa
:101388005885dcffffe61b009dffffffffffffff07
:10139800ffffffc2260000024a98c8ddf1fcf2d424
:1013a800a04d010000000000000000000000000047
:1013b8000000a5ffff700000000000000000000012
:1013c800000054ffffff7000000000000000000054
:1013d800000018ecffffff70000000000000000094
:1013e800000000b3ffabfbff70000000000000002e
:1013f80000000065fffa32ffff70000000000000e7
:1014080000000021f3ff8213ffff700000000000be
:1014180000000002c2ffcb0519ffff7000000000aa
:101428000000000075fff627001bffff700000009a
:10143800000000002bf8ff6a00001cffff7000008e
:101448000000000005ceffb70000001cffff700081
:10145800000000000085ffec180000001cffff7072
:10146800000000000038fcff52000000001cffffd5
:1014780070000000000adaff9e00000000001cff58
:10148800ff700000000095ffdf0d00000000001c49
:10149800ffff700000003bfeffac78787878787822
:1014a80086ffffb378784360ffffffffffffffff72
:1014b800ffffffffffffff9060ffffffffffffff42
:1014c800ffffffffffffffff90000000000000008c
:1014d8000000001cffff700000000000000000007a
:1014e800000000001cffff7000000000000000006a
:1014f80000000000001cffff70000000000000005a
:101508000000000000001cffff7000000000000049
:10151800000000000000001cffff70000000000039
:101528000000d7fffffffffffffffffff4000000f1
:1015380000ebfffffffffffffffffff400000002cb
:10154800fdff93444444444444444000000014ffd5
:10155800ff59000000000000000000000029ffff04
:101568004400000000000000000000003effff2fc4
:10157800000000000000000000000052ffff1a00f9
:101588000000000000000000000067ffff060000e8
:101598000000000000000000007cfffcbbddf1fa49
:1015a800e8ba6e0d000000008dffffffffffffff90
:1015b800ffffe5410000000e92986f51485682d80f
:1015c800fffff63500000000000000000000038d5a
:1015d800ffffcb000000000000000000000000c773
:1015e800ffff2900000000000000000000006bff62
:1015f800ff5c000000000000000000000047ffff43
:101608006e00000000000000000000004dffff60b9
:10161800000000000000000000000078ffff3c0010
:1016280000000000000000000005d9ffee04146f60
:101638000a0000000000000cabffff7b001cfff459
:10164800ad765448588de8ffffbf050017fbffff34
:10165800ffffffffffffffa20b000000207ab9e0a9
:10166800f5fceecf92300000000000000000000002
:1016780000055aa9d9f3fcf3d61100000000003286
:10168800daffffffffffffff180000000050f9ff1f
:10169800ffcc7d5b4958850f00000029f3ffe84b1c
:1016a80000000000000000000000bcfff22e000057
:1016b800000000000000000033ffff780000000079
:1016c800000000000000008cfff80e000000000081
:1016d800000000000000d1ffb9000004243d2e06e0
:1016e8000000000006fdff860174e6fffffff49688
:1016f80013000026ffff66aaffffffffffffffddc5
:101708001c0040ffffccffab3d0e0a3bbaffffc1f8
:10171800004cffffff73000000000003bcffff3d0b
:1017280055ffffbc0000000000000037ffff864f98
:10173800ffff650000000000000001f3ffad3bff64
:10174800ff5a0000000000000000e0ffbb16ffff8a
:101758007c0000000000000000eaffae00dbffc5cf
:101768000000000000000013ffff8d0084ffff3f12
:101778000000000000006affff4d0016f3ffe21ea4
:10178800000000002beeffe10400005ffffff18680
:1017980053528ff5fffe480000000068f9ffffff75
:1017a800fffffff85b0000000000002392d8f8f468
:1017b800d58f1f0000000000b0fffffffffffffff5
:1017c800ffffffffffffb0b0ffffffffffffffffbf
:1017d800ffffffffffaf2e444444444444444444c5
:1017e800447affff6f0000000000000000000000c6
:1017f800adfff20e0000000000000000000022fd16
:10180800ff91000000000000000000000092fffeb1
:10181800240000000000000000000010f3ffb300e7
:101828000000000000000000000076ffff440000f8
:10183800000000000000000004e2ffd500000000e6
:10184800000000000000005affff660000000000d2
:10185800000000000000cbffed0a000000000000bf
:10186800000000003effff880000000000000000ac
:10187800000000b0fffc1d00000000000000000098
:101888000024fdffaa000000000000000000000086
:1018980095ffff3b0000000000000000000011f46d
:1018a800ffcc000000000000000000000079ffffee
:1018b8005d0000000000000000000005e5ffe806ec
:1018c800000000000000000000005dffff7f000036
:1018d800000000000000000000cefff91700000023
:1018e8000000000000000041ffffa1000000000010
:1018f800000000000000b3ffff33000000000000fc
:10190800000000000000000b71bfe8faefca841c59
:10191800000000000037e6fffffffffffffff55c58
:101928000000001af0ffffb5664c64aafdfffe3cfc
:1019380000008cffff6000000000004afeffb100bd
:1019480000c2ffdb00000000000000c4ffe7000049
:10195800d1ffc400000000000000aaffed0000ada8
:10196800ffed08000000000000d4ffc2000053ff94
:10197800ff8e000000000062ffff54000000a4ff7b
:10198800ffb026000b8dfeff9400000000039affb5
:10199800fffcafeafff269000000000000007dffd5
:1019a800fffffffe4d0000000000000e8ffbffe868
:1019b800ccfffffc940f00000016d2fffa7b0a0050
:1019c8003ab6ffffd9210000b9fff23c0000000041
:1019d800005ef8ffd10535ffff6f00000000000032
:1019e8000064ffff5871ffff1f00000000000000a7
:1019f80006fbff9281ffff130000000000000000bb
:101a0800f5ff9f67ffff500000000000000037ff50
:101a1800ff7f20fdffdc1a000000000013cfffff4e
:101a28002f0093ffffee8f58475489eaffff980075
:101a380000049afffffffffffffffffe9403000073
:101a480000003595cfeffcf2d3963100000000007e
:101a58000000001373c7e8fae4a73e000000000086
:101a6800003ee6ffffffffffffff9d04000000268a
:101a7800f3fffca45b4d70d6ffff9e000000bcff87
:101a8800fa470000000003a3ffff49001ffeff9272
:101a980000000000000006d9ffc40058ffff410005
:101aa8000000000000006affff1b73ffff22000018
:101ab800000000000028ffff5677ffff32000000fb
:101ac800000000001affff7a5bffff6000000000c3
:101ad8000000005bffff8d1cfdffda060000000020
:101ae8000023e6ffff9400a5ffffc3430d072679f7
:101af800f1deffff8b0010d1ffffffffffffffe0cc
:101b08003fffff7f00000b88eefffffff79d1439b2
:101b1800ffff6300000000022a3e2c0b000062ff5a
:101b2800ff40000000000000000000000099fffcda
:101b38000f0000000000000000000003e6ffc900dd
:101b48000000000000000000000062ffff700000bd
:101b5800000000000000000022ebffec0b0000007a
:101b68000000000000003ce0ffff59000000008575
:101b78005c495773c1feffff870000000000f0ffbb
:101b8800fffffffffff159000000000000c3f0fc59
:101b9800f8e3b87011000000000000004ee8e64dc0
:101ba800c6ffffccc5ffffca49e6e54800000000b4
:101bb800000000000000000000000000000000001d
:101bc800000000000000000000000000000000000d
:101bd8004ce7e54bc6ffffccc4ffffca49e6e54723
:101be800000058ebe3440000d5ffffbc0000d4ff21
:101bf800ffbb000052eae13f0000000000000000c7
:101c080000000000000000000000000000000000cc
:101c180000000000000000000000000000000000bc
:101c280000000000000000000000000000000000ac
:101c3800a1ffff640000caffff2f0001f2ffe501ca
:101c48000024ffff94000056ffff3e000088ffdfde
:101c5800010000beff7f000002f2fd1d0000000031
:101c680000000000000000000000000000000e005e
:101c780000000000000000000000002dac9e0000e5
:101c880000000000000000002eacfeffa0000000d5
:101c980000000000002eadfefffaa02600000000a4
:101ca80000002fadfefff5921e0000000000002f7f
:101cb800aefeffef841500000000000030affeff0d
:101cc800e7760d00000000000027affeffdc680784
:101cd800000000000000000080ffffca1a0000009a
:101ce8000000000000000036c1fffff9a439000021
:101cf800000000000000000031a2f9ffffcd6209da
:101d08000000000000000000001882eaffffed8bd1
:101d1800210000000000000000000863d3fffffd61
:101d2800b4480100000000000000000044b5feffb8
:101d3800ff9500000000000000000000002695f458
:101d4800a000000000000000000000000000113c9e
:101d580015444444444444444444444444441c5086
:101d6800ffffffffffffffffffffffffff6c50ffbd
:101d7800ffffffffffffffffffffffff6c000000fb
:101d8800000000000000000000000000000000004b
:101d9800000000000000000000000000000000003b
:101da80000000000000000000000154444444444c2
:101db80044444444444444441c50ffffffffffff95
:101dc800ffffffffffffff6c50ffffffffffffff5d
:101dd800ffffffffffff6c000e0000000000000087
:101de800000000000000007fbc3c00000000000074
:101df80000000000000080ffffbc3c000000000065
:101e080000000000001b92f6ffffbd3d000000002f
:101e18000000000000001585f0ffffbd3e00000037
:101e2800000000000000000e78e9ffffbe3e000041
:101e38000000000000000000096ce0ffffbe3f004a
:101e4800000000000000000000045fd6ffffbf365e
:101e5800000000000000000000000db4ffffa0001b
:101e6800000000000000002790f0ffffce480000af
:101e78000000000350bbfefffdb03f000000000063
:101e8800167ae2fffff2902200000000003aa5f95e
:101e9800ffffde710e00000000000075ffffffc3aa
:101ea8005202000000000000000080faa332000087
:101eb80000000000000000000034190000000000cd
:101ec8000000000000000000000c61addef3fae73e
:101ed800b5560000005ef3ffffffffffffffffb0f6
:101ee80005002efffbb06d4f5177e0ffff88000023
:101ef800641b00000000000bd5fff2050000000085
:101f080000000000006cffff2c0000000000000033
:101f180000004fffff3400000000000000000079bf
:101f2800ffff17000000000000000019e8ffc300d1
:101f38000000000000000019d4fff8340000000081
:101f480000000029e0fff850000000000000002c0d
:101f5800ebffed3f000000000000000ce0ffe2286e
:101f6800000000000000000072fff32600000000df
:101f78000000000000b2ff8b00000000000000001d
:101f88000000c8ff5d0000000000000000000079ac
:101f9800982d000000000000000000000000000074
:101fa8000000000000000000000000000000000029
:101fb800000000000014c8f49500000000000000b4
:101fc80000006affffff2100000000000000006918
:101fd800ffffff1f000000000000000012c6f5917f
:101fe80000000000000000000000000000000000e9
:101ff8001d73b3dcf4fcf0d19c4c0200000000001f
:1020080000000000000000199dfdffffffffffff1b
:10201800ffffffd94c00000000000000000000583e
:10202800f4ffffe49a6b5247547abcfdffff8f021e
:102038000000000000000071feffd54e0100000006
:102048000000000024bdffff9200000000000051c6
:10205800ffff9c0800000000000000000000028351
:10206800ffff54000000001cedff98000000000076
:10207800000000000000000000a9ffe406000000c6
:102088009affcd050000000969c7ebf9e7be842b6c
:1020980000000de8ff60000016f7ff3d0000001a81
:1020a800d0ffffffffffffffa800000080ffb40084
:1020b8000073ffcb00000004cffffb9d5a4e71df79
:1020c800ff9c00000031fff20000b6ff7500000021
:1020d8006efffd4e00000000b2ff9000000006fbfe
:1020e800ff1c03f2ff35000000cfffa8000000002e
:1020f80000beff8400000000eaff2f1affff0c005b
:102108000015ffff4f0000000000c9ff7800000025
:1021180000e5ff372dfff400000031ffff2300002a
:10212800000000d9ff6c00000000f3ff2a3fffeb1e
:102138000000003fffff170000000003f9ff6000e8
:1021480000001bfffd0a3afff70000002effff2edc
:102158000000000034ffff5e0000005affd2002993
:10216800ffff0a000006f7ff78000000009bffff52
:1021780079000000c4ff820007fdff3b000000a7b4
:10218800fff565131274fea9fade30128dfff618fa
:102198000000cfff7c00000023f1ffffffffffe1fd
:1021a80015abffffffffff6500000084ffe10300a0
:1021b800000036d4ffffffc1240018caffffed64fa
:1021c800000000001ffcff700000000000263c1efd
:1021d80000000000022a330a00000000000094fffb
:1021e800f9410000000000000000000000000000ad
:1021f800000000000000000dd4fffa6f0500000089
:10220800000000000000000b0000000000000000bb
:10221800001ed7ffffe081411b080614345f9ce2d3
:102228007000000000000000000000109efeffff8c
:10223800ffffffffffffffffff6b00000000000034
:10224800000000000000298fdbffffffffffffdf1a
:10225800994100000000000000000000000000009c
:1022680000000e303e3d2f0f00000000000000006f
:10227800000000000000000000000000d1fff10a8b
:102288000000000000000000000000000000003214
:10229800ffffff5d000000000000000000000000dc
:1022a80000000094ffffffbe0000000000000000d7
:1022b80000000000000007edffabfffe200000005b
:1022c8000000000000000000000057ffff24f3ff9b
:1022d8008000000000000000000000000000b8ffbf
:1022e800ce00a7ffdf010000000000000000000092
:1022f800001cfdff740049ffff42000000000000c1
:1023080000000000007bfffb180003e6ffa30000ad
:10231800000000000000000000dbffb20000008a9f
:10232800fff60e0000000000000000003effff5115
:102338000000002bffff6500000000000000000007
:10234800a0ffeb0500000000cbffc6000000000066
:102358000000000cf4ff9000000000006cffff2854
:102368000000000000000062ffffa48080808080e1
:1023780092ffff8900000000000000c4ffffffff7c
:10238800ffffffffffffffe603000000000025ff3f
:10239800ffffffffffffffffffffffff4b000000f6
:1023a800000087fffd1b0000000000000013f9ff7c
:1023b800ac0000000003e5ffbb00000000000000c7
:1023c8000000affff9130000004affff5e000000a5
:1023d80000000000000051ffff6e000000abfff599
:1023e8000c00000000000000000005ecffcf00001a
:1023f80013f9ffa400000000000000000000009492
:10240800ffff30006effff470000000000000000e3
:1024180000000036ffff9100cfffe7030000000037
:102428000000000000000000d7ffec0618ffffffc7
:10243800fffffffbf0d7b1711900000018ffffff85
:10244800fffffffffffffffff97b000018ffffb64c
:10245800444444475579c2ffffff690018ffff9cb9
:10246800000000000000005effffdf0018ffff9c77
:102478000000000000000000c9ffff1418ffff9cc7
:102488000000000000000000a6ffff2118ffff9ccd
:102498000000000000000000bffff90818ffff9cc3
:1024a800000000000000002efbffa50018ffff9ca5
:1024b800000000000a296febffce160018ffffff8f
:1024c800ffffffffffffffd17a09000018ffffffa2
:1024d800ffffffffffffffc97a14000018ffffb6d8
:1024e800444444444e69a7f9ffee470018ffff9c97
:1024f800000000000000002eedfff32318ffff9cf2
:10250800000000000000000067ffff8c18ffff9c20
:10251800000000000000000018ffffc518ffff9c26
:10252800000000000000000005ffffd918ffff9c15
:10253800000000000000000021ffffcb18ffff9cf7
:10254800000000000000000074ffff9918ffff9cc6
:102558000000000000000032f2ffff3d18ffffb648
:10256800444444444b65a4f9ffff9c0018ffffff57
:10257800fffffffffffffffffe90030018ffffffb5
:10258800fffffffffdefcd8f2c00000000000000d3
:1025980000001e77bae4f6fbeecfa15b0a0000004c
:1025a80000000b95faffffffffffffffffffd200c0
:1025b8000000001ad5fffffbb46e524b639bedff82
:1025c8006e0000000ad2ffffc72a000000000000ca
:1025d80007560a0000008dffffc20a000000000035
:1025e8000000000000000019f9fff01c00000000c6
:1025f80000000000000000000078ffff89000000d4
:102608000000000000000000000000c2ffff2900d9
:1026180000000000000000000000000001f5ffedd0
:10262800000000000000000000000000000018ff8b
:10263800ffc80000000000000000000000000000cb
:1026480026ffffb8000000000000000000000000a6
:10265800000027ffffb70000000000000000000096
:10266800000000001affffc6000000000000000084
:1026780000000000000002f9ffeb0000000000006d
:10268800000000000000000000cdffff2300000054
:1026980000000000000000000000008cffff7c002c
:1026a8000000000000000000000000000031fffff3
:1026b800e71000000000000000000000000000001b
:1026c800b7ffffa8020000000000000000000000a3
:1026d800000024f2ffffad18000000000000000217
:1026e800040000000043f6fffff3a7684f4d647d28
:1026f800b2ee3000000000002dccffffffffffff0f
:10270800ffffffff30000000000000004699d0f0f6
:10271800fcfaeed49e5f0a0018fffffffffffffee2
:10272800f2d9ad671000000000000018ffffffff9e
:10273800fffffffffffffff483080000000018ff02
:10274800ffb64444444b5e89ccffffffcb17000023
:102758000018ffff9c000000000000003cd6ffffaf
:10276800cc09000018ffff9c0000000000000000da
:102778000cc4ffff86000018ffff9c00000000004b
:102788000000000019f0fff6140018ffff9c00007d
:1027980000000000000000008bffff6e0018ffff24
:1027a8009c0000000000000000000034ffffb5009e
:1027b80018ffff9c0000000000000000000004f764
:1027c800ffe30018ffff9c0000000000000000006d
:1027d8000000dffffe0118ffff9c00000000000062
:1027e8000000000000ceffff0b18ffff9c00000058
:1027f8000000000000000000d3fffe0318ffff9c4c
:102808000000000000000000000000e3fff00018d6
:10281800ffff9c000000000000000000000efdff0c
:10282800d50018ffff9c0000000000000000000019
:1028380047ffff9b0018ffff9c00000000000000fe
:10284800000000aaffff5a0018ffff9c00000000cc
:10285800000000000034fcffe5070018ffff9c00a3
:102868000000000000000020dfffff6b000018ffe1
:10287800ff9c000000000000045decffffaa0000c0
:102888000018ffffb6444445546a9fe4ffffffa6c3
:102898000a00000018ffffffffffffffffffffff19
:1028a800dc5f000000000018fffffffffffff5e3fb
:1028b800c88e4b02000000000000000018ffffff58
:1028c800ffffffffffffffffe018ffffffffffff16
:1028d800ffffffffffe018ffffb6444444444444b1
:1028e80044443b18ffff9c0000000000000000006b
:1028f80018ffff9c00000000000000000018ffff08
:102908009c00000000000000000018ffff9c000071
:102918000000000000000018ffff9c0000000000fd
:102928000000000018ffff9c0000000000000000ed
:102938000018ffffffffffffffffffffff5818ff13
:10294800ffffffffffffffffffff5818ffffb64421
:10295800444444444444441718ffff9c00000000ca
:10296800000000000018ffff9c00000000000000ad
:10297800000018ffff9c0000000000000000001885
:10298800ffff9c00000000000000000018ffff9cf3
:1029980000000000000000000018ffff9c0000007d
:1029a80000000000000018ffff9c0000000000006d
:1029b80000000018ffffb644444444444444443be8
:1029c80018ffffffffffffffffffffffe018fffffc
:1029d800ffffffffffffffffffe0000018ffffff03
:1029e800ffffffffffffffffe018fffffffffffff5
:1029f800ffffffffffe018ffffb644444444444490
:102a080044443b18ffff9c00000000000000000049
:102a180018ffff9c00000000000000000018ffffe6
:102a28009c00000000000000000018ffff9c000050
:102a38000000000000000018ffff9c0000000000dc
:102a48000000000018ffff9c0000000000000000cc
:102a58000018ffff9c00000000000000000018ffa5
:102a6800ffffffffffffffffffff5018ffffffff04
:102a7800ffffffffffffff5018ffffb64444444429
:102a8800444444441518ffff9c0000000000000067
:102a9800000018ffff9c0000000000000000001864
:102aa800ffff9c00000000000000000018ffff9cd2
:102ab80000000000000000000018ffff9c0000005c
:102ac80000000000000018ffff9c0000000000004c
:102ad80000000018ffff9c0000000000000000003c
:102ae80018ffff9c00000000000000000018ffff16
:102af8009c00000000000000000000000000000032
:102b08000000034c98caecf9f9ebcb9f6114000064
:102b1800000000005adfffffffffffffffffffff7e
:102b2800fa2000000007a6ffffffd48a5f4b506819
:102b380099dcffbc00000001adffffe34f0000007f
:102b480000000000002e2c0000006fffffd81b00c3
:102b58000000000000000000000000000ff1fff777
:102b68002d00000000000000000000000000006ec2
:102b7800ffff9500000000000000000000000000ba
:102b88000000bcffff2d0000000000000000000056
:102b98000000000000f2ffeb010000000000000050
:102ba8000000000000000017ffffc2000000000046
:102bb8000000000000000000000026ffffb0000039
:102bc8000000000000ccffffffffffffa027ffff72
:102bd800b200000000000000ccffffffffffffa0d5
:102be80019ffffc8000000000000003644444452aa
:102bf800ffffa001f7ffe600000000000000000052
:102c0800000014ffffa000c9ffff2a000000000019
:102c1800000000000014ffffa00082ffff7c0000fe
:102c2800000000000000000014ffffa00023fdffcb
:102c3800f11800000000000000000014ffffa000d1
:102c4800009fffffba0b000000000000000014ff07
:102c5800ffa0000013e0ffffcc27000000000000e9
:102c68000014ffffa000000027e3fffffcba79541f
:102c780047495a82bfffffa00000000015a7feffca
:102c8800ffffffffffffffffffff9e0000000000a8
:102c9800002981bfe7f8fdf6e8d0ad7d41060000c8
:102ca80018ffff9c0000000000000000000068ff03
:102cb800ff4c18ffff9c000000000000000000000f
:102cc80068ffff4c18ffff9c000000000000000098
:102cd800000068ffff4c18ffff9c00000000000088
:102ce8000000000068ffff4c18ffff9c0000000078
:102cf80000000000000068ffff4c18ffff9c000068
:102d0800000000000000000068ffff4c18ffff9c57
:102d18000000000000000000000068ffff4c18ffe2
:102d2800ff9c0000000000000000000068ffff4c4e
:102d380018ffff9c0000000000000000000068ff72
:102d4800ff4c18ffffffffffffffffffffffffff25
:102d5800ffffff4c18ffffffffffffffffffffff15
:102d6800ffffffffff4c18ffffb6444444444444b0
:102d78004444444490ffff4c18ffff9c00000000af
:102d880000000000000068ffff4c18ffff9c0000d7
:102d9800000000000000000068ffff4c18ffff9cc7
:102da8000000000000000000000068ffff4c18ff52
:102db800ff9c0000000000000000000068ffff4cbe
:102dc80018ffff9c0000000000000000000068ffe2
:102dd800ff4c18ffff9c00000000000000000000ee
:102de80068ffff4c18ffff9c000000000000000077
:102df800000068ffff4c18ffff9c00000000000067
:102e08000000000068ffff4c18ffff9c0000000056
:102e180000000000000068ffff4c18ffff9c000046
:102e2800000000000000000068ffff4cccffffff1f
:102e3800fffffff0a6fbfffffffffec7000b72ffbf
:102e4800ff901100000048ffff6c0000000048ffe1
:102e5800ff6c0000000048ffff6c0000000048ff06
:102e6800ff6c0000000048ffff6c0000000048fff6
:102e7800ff6c0000000048ffff6c0000000048ffe6
:102e8800ff6c0000000048ffff6c0000000048ffd6
:102e9800ff6c0000000048ffff6c0000000048ffc6
:102ea800ff6c0000000048ffff6c0000000048ffb6
:102eb800ff6c0000000048ffff6c0000000048ffa6
:102ec800ff6c0000000057ffff7b000089e2ffff56
:102ed800ffffe9a5ccfffffffffffff000000000a8
:102ee800003cffff7400000000003cffff7400007e
:102ef8000000003cffff7400000000003cffff746e
:102f080000000000003cffff7400000000003cffd0
:102f1800ff7400000000003cffff74000000000088
:102f28003cffff7400000000003cffff740000003d
:102f380000003cffff7400000000003cffff74002d
:102f4800000000003cffff7400000000003cffff91
:102f58007400000000003cffff7400000000003c0b
:102f6800ffff7400000000003cffff740000000039
:102f7800003cffff7400000000003cffff740000ed
:102f88000000003cffff7400000000003cffff74dd
:102f980000000000003cffff7400000000003cff40
:102fa800ff73000000000044ffff670000000000fe
:102fb80064ffff4c0000000003c8fffb132d6048ae
:102fc8005cc3ffff9f0058ffffffffffca0e003cd6
:102fd800dcf8f4cb7207000018ffff9c000000002b
:102fe8000000000058feffc30718ffff9c00000008
:102ff800000000003cf8ffd8120018ffff9c0000fa
:103008000000000025ecffe821000018ffff9c00ed
:103018000000000014dcfff43400000018ffff9cdf
:103028000000000008c5fffc4b0000000018ffff6f
:103038009c00000001aaffff67000000000018ffc5
:10304800ff9c0000008affff8500000000000018b8
:10305800ffff9c00006affffa301000000000000c2
:1030680018ffff9c004dfcffbd060000000000009b
:103078000018ffff9c34f4ffeb0f00000000000075
:10308800000018ffffbbe8ffffff59000000000029
:1030980000000018ffffffffd5fdfff01f00000034
:1030a8000000000018ffffffb40a86ffffc40300fa
:1030b800000000000018ffffbe030004c7ffff7eea
:1030c80000000000000018ffff9c00000020f0ff37
:1030d800fb38000000000018ffff9c0000000057ac
:1030e800ffffdd0d0000000018ffff9c000000003e
:1030f800009dffffa20000000018ffff9c000000d9
:1031080000000ad7ffff5800000018ffff9c0000ce
:10311800000000002ff8fff01f000018ffff9c00c0
:103128000000000000006effffc3030018ffff9cb3
:103138000000000000000000b3ffff7d0018ffff43
:103148009c000000000000000014e5fffb380000b0
:1031580018ffff9c00000000000000000018ffff9f
:103168009c00000000000000000018ffff9c000009
:103178000000000000000018ffff9c000000000095
:103188000000000018ffff9c000000000000000085
:103198000018ffff9c00000000000000000018ff5e
:1031a800ff9c00000000000000000018ffff9c00ca
:1031b800000000000000000018ffff9c0000000055
:1031c800000000000018ffff9c0000000000000045
:1031d800000018ffff9c000000000000000000181d
:1031e800ffff9c00000000000000000018ffff9c8b
:1031f80000000000000000000018ffff9c00000015
:1032080000000000000018ffff9c00000000000004
:1032180000000018ffff9c000000000000000000f4
:1032280018ffff9c00000000000000000018ffffce
:103238009c00000000000000000018ffff9c000038
:103248000000000000000018ffffcc7c7c7c7c7c28
:103258007c7c7c7818ffffffffffffffffffffff6d
:10326800f818fffffffffffffffffffffff8000059
:1032780018fffffffc19000000000000000000001c
:103288000000d7ffffff4c18ffffffff740000008e
:10329800000000000000000037ffffffff4c18ff90
:1032a800fff8ffd1000000000000000000000096b9
:1032b800fffaffff4c18ffffadffff2f00000000d3
:1032c800000000000007eeffabffff4c18ffff6295
:1032d800fbff8c00000000000000000055fffd5cb3
:1032e800ffff4c18ffff57b4ffe603000000000083
:1032f800000000b4ffba4cffff4c18ffff5c56fffc
:10330800ff470000000000000017fbff5a53ffffb3
:103318004c18ffff6107efffa50000000000000048
:1033280073fff1095affff4c18ffff66009afff57b
:103338000d000000000000d2ff9b005fffff4c184b
:10334800ffff68003cffff60000000000032ffff45
:103358003c0060ffff4c18ffff680000dcffbd0069
:103368000000000091ffdc000060ffff4c18ffff29
:1033780068000080fffd1d00000005eaff7d0000d9
:1033880060ffff4c18ffff68000022ffff78000075
:10339800004ffffe1f000060ffff4c18ffff680092
:1033a8000000c4ffd5000000afffbe00000060ffb2
:1033b800ff4c18ffff6800000066ffff340013fa97
:1033c800ff5f00000060ffff4c18ffff680000006f
:1033d8000ff7ff91006dfff40b00000060ffff4c3a
:1033e80018ffff6800000000aaffea04cdffa00054
:1033f80000000060ffff4c18ffff68000000004c51
:10340800ffff78ffff410000000060ffff4c18ff3e
:10341800ff680000000004e9fffeffe00100000073
:103428000060ffff4c18ffff68000000000090ffdd
:10343800ffff82000000000060ffff4c18ffff68dc
:10344800000000000032ffffff23000000000060c2
:10345800ffff4c18ffff68000000000000d3ffc307
:1034680000000000000060ffff4c000018ffffff95
:103478005900000000000000000000a0ffe418ff51
:10348800ffffea13000000000000000000a0ffe4b6
:1034980018ffffffffa3000000000000000000a0cd
:1034a800ffe418fffff7ffff4800000000000000de
:1034b80000a0ffe418ffff7bffffe10c0000000005
:1034c800000000a0ffe418ffff40a8ffff920000e3
:1034d8000000000000a0ffe418ffff4e17effffdfb
:1034e80039000000000000a0ffe418ffff57006645
:1034f800ffffd5060000000000a0ffe418ffff5ef4
:103508000001c3ffff810000000000a0ffe418ffd6
:10351800ff65000029f9fff92b00000000a0ffe477
:1035280018ffff6800000082ffffc802000000a02b
:10353800ffe418ffff6800000007d9ffff6f0000d5
:1035480000a0ffe418ffff680000000040fffff440
:103558002000009effe418ffff6800000000009ea6
:10356800ffffb900009bffe418ffff6800000000a0
:103578000012eaffff5e0094ffe418ffff680000f6
:10358800000000005cffffed1689ffe418ffff68ec
:1035980000000000000000baffffa87dffe418ff4c
:1035a800ff680000000000000023f6ffffc0ffe4f2
:1035b80018ffff68000000000000000078ffffff10
:1035c800ffe418ffff68000000000000000004d2bc
:1035d800ffffffe418ffff68000000000000000084
:1035e8000038fdffffe418ffff680000000000003e
:1035f8000000000095ffffe4000000000000419576
:10360800cbeefbf5dfb0650d000000000000000008
:103618000029c7ffffffffffffffffffec6200006d
:10362800000000000040f4ffffe3935f4b5572b9c0
:10363800feffff92000000000022f1ffff84070058
:10364800000000000036ddffff7300000000b7ff38
:10365800ff7f00000000000000000020ebfff81fc3
:10366800000031ffffd5040000000000000000004a
:103678000067ffff9500008cffff69000000000055
:1036880000000000000007f0ffef0400ceffff1766
:10369800000000000000000000000000a6ffff3747
:1036a80002f9ffe400000000000000000000000034
:1036b8000075ffff661affffc4000000000000004d
:1036c80000000000000054ffff8527ffffb6000040
:1036d800000000000000000000000046ffff9226e6
:1036e800ffffb7000000000000000000000000001d
:1036f80048ffff9119ffffc500000000000000000f
:10370800000000000056ffff8402f8ffe7000000f9
:103718000000000000000000000078ffff6500ccfa
:10372800ffff1a000000000000000000000000abce
:10373800ffff35008affff6d000000000000000059
:103748000000000af3ffed030030ffffd905000079
:1037580000000000000000006fffff92000000b6ac
:10376800ffff8500000000000000000025effff7c4
:103778001c00000022f1ffff870800000000000085
:103788003ce1ffff6d000000000041f4ffffe49200
:103798005e4a5473bdfeffff8a000000000000006f
:1037a80029c7ffffffffffffffffffe95b000000e6
:1037b800000000000000004297cdeefbf5deaf628e
:1037c8000b0000000000000018fffffffffffef3e2
:1037d800e1b6771a00000018ffffffffffffffffa9
:1037e800fffff771000018ffffb6444446557ccb35
:1037f800ffffff6d0018ffff9c0000000000006441
:10380800fdfff31318ffff9c000000000000009d5f
:10381800ffff5f18ffff9c0000000000000049ff49
:10382800ff8c18ffff9c0000000000000031ffff24
:103838009818ffff9c0000000000000044ffff7f75
:1038480018ffff9c000000000000008affff4918d5
:10385800ffff9c00000000000037f6ffe50318ff9b
:10386800ff9c0000071c499af9fffe530018ffff50
:10387800fffffffffffffffff660000018ffffffdd
:10388800ffffffffffe2911f00000018ffffb64493
:10389800443f331500000000000018ffff9c0000a3
:1038a80000000000000000000018ffff9c0000005e
:1038b800000000000000000018ffff9c000000004e
:1038c8000000000000000018ffff9c00000000003e
:1038d80000000000000018ffff9c0000000000002e
:1038e800000000000018ffff9c000000000000001e
:1038f8000000000018ffff9c00000000000000000e
:1039080000000018ffff9c000000000000000000fd
:10391800000000000000000000004195cbeefbf520
:10392800dfb0640c00000000000000000029c7ffa1
:10393800ffffffffffffffffea5e0000000000003f
:103948000040f4ffffe3935f4b5572b9feffff8d14
:10395800000000000022f1ffff84070000000000c3
:103968000036ddffff6f00000000b7ffff7f00009b
:103978000000000000000020ebfff71d000031fff1
:10398800ffd5040000000000000000000067fffff2
:103998009200008cffff690000000000000000009a
:1039a800000007f0ffed0300ceffff170000000046
:1039b8000000000000000000a6ffff3502f9ffe448
:1039c8000000000000000000000000000075ffff7c
:1039d800651affffc400000000000000000000009e
:1039e800000054ffff8427ffffb60000000000001e
:1039f8000000000000000046ffff9126ffffb7000f
:103a080000000000000000000000000048ffff91d7
:103a180019ffffc5000000000000000000000000c2
:103a28000056ffff8302f8ffe700000000000000d7
:103a380000000000000078ffff6400ccffff1a00c0
:103a48000000000000000000000000abffff37008e
:103a58008affff6d00000000000000000000000a5f
:103a6800f3ffec030030ffffd90500000000000061
:103a7800000000006fffff95000000b6ffff850003
:103a8800000000000000000025effffa2100000000
:103a980022f1ffff87080000000000003ce1ffff63
:103aa8007a000000000041f4ffffe4925e4a54737c
:103ab800bdfeffff9f0200000000000029c7ffffb6
:103ac800fffffffffffffff4700100000000000090
:103ad8000000004297cdeefcffffffb6110000008a
:103ae8000000000000000000000000000029f0ffb6
:103af800fb4c000000000000000000000000000077
:103b080000000048fcfff740000000000000000033
:103b180000000000000000000071fffff234000008
:103b28000000000000000000000000000000009cf1
:103b3800ffffec2a00000000000000000000000069
:103b48000000000005c0fcfce11f000018ffffff9b
:103b5800fffffff6e6bf8426000000000018ffff05
:103b6800fffffffffffffffffc8a0100000018ffb7
:103b7800ffb64444444f6db0fdffff8700000018b6
:103b8800ffff9c0000000000003bf3fffa1d00004f
:103b980018ffff9c0000000000000084ffff680081
:103ba8000018ffff9c0000000000000041ffff8e8e
:103bb800000018ffff9c0000000000000031ffff1c
:103bc80098000018ffff9c000000000000004aff5a
:103bd800ff81000018ffff9c000000000000009813
:103be800ffff42000018ffff9c0000000000004f8c
:103bf800fbffce02000018ffffb64444444d6cb4ee
:103c0800feffe82900000018ffffffffffffffff8e
:103c1800ffffb41f0000000018ffffffffffffffba
:103c2800ffff9100000000000018ffff9c0000004b
:103c380003d3fff51e000000000018ffff9c0000e2
:103c4800000043ffffae000000000018ffff9c00cb
:103c580000000000afffff480000000018ffff9cb5
:103c6800000000000023f8ffdb0700000018ffff3a
:103c78009c00000000000088ffff7d00000018ff86
:103c8800ff9c0000000000000de7fff62000001870
:103c9800ffff9c0000000000000061ffffb2000071
:103ca80018ffff9c0000000000000001cbffff4c44
:103cb8000018ffff9c00000000000000003bffff11
:103cc800dd0800000000001275c1e6faf4e1b978d9
:103cd800290000000050ecffffffffffffffffff80
:103ce8006000003ffafffda5664b5479b6fbfa1455
:103cf8000000c8fffb3e000000000000144b00005d
:103d080011ffffad00000000000000000000002dc2
:103d1800ffff8e00000000000000000000001efff2
:103d2800ffb5000000000000000000000000e6fff2
:103d3800fc40000000000000000000000079ffffc8
:103d4800f8770a00000000000000000003b1ffff40
:103d5800ffea8a250000000000000000037bf6ff50
:103d6800fffffeb93d00000000000000001987e9d0
:103d7800ffffffffaa0f000000000000000005562b
:103d8800c7ffffffcf0a000000000000000000008e
:103d98004de7ffff84000000000000000000000065
:103da8002bfbffe000000000000000000000000006
:103db800bffffd050000000000000000000000ac8f
:103dc800fffd040000000000000000000003e0ff09
:103dd800da00342a000000000000000290ffff8093
:103de8000078ffda9a6c5247517cd4ffffd30a005f
:103df80078ffffffffffffffffffffb41400000f76
:103e080061a0cce9f8fdf0d0983d0000000000006a
:103e1800b4fffffffffffffffffffffffffffffff5
:103e280058b4ffffffffffffffffffffffffffff8c
:103e3800ff582f444444444446ffffc54444444487
:103e480044441700000000000004ffffb000000019
:103e58000000000000000000000004ffffb00000a8
:103e6800000000000000000000000004ffffb00098
:103e780000000000000000000000000004ffffb088
:103e88000000000000000000000000000004ffff28
:103e9800b00000000000000000000000000004ff67
:103ea800ffb0000000000000000000000000000457
:103eb800ffffb0000000000000000000000000004c
:103ec80004ffffb000000000000000000000000038
:103ed8000004ffffb0000000000000000000000028
:103ee800000004ffffb00000000000000000000018
:103ef80000000004ffffb000000000000000000008
:103f08000000000004ffffb00000000000000000f7
:103f1800000000000004ffffb000000000000000e7
:103f280000000000000004ffffb0000000000000d7
:103f38000000000000000004ffffb00000000000c7
:103f4800000000000000000004ffffb000000000b7
:103f580000000000000000000004ffffb0000000a7
:103f68000000000000000000000004ffffb0000097
:103f7800000000000000000000000004ffffb00087
:103f880000000000000000004cffff680000000077
:103f980000000000000078ffff344cffff680000bd
:103fa800000000000000000078ffff344cffff68ad
:103fb8000000000000000000000078ffff344cff04
:103fc800ff680000000000000000000078ffff34d8
:103fd8004cffff680000000000000000000078ffb0
:103fe800ff344cffff6800000000000000000000e4
:103ff80078ffff344cffff6800000000000000005d
:10400800000078ffff344cffff680000000000004c
:104018000000000078ffff344cffff68000000003c
:1040280000000000000078ffff344cffff6800002c
:10403800000000000000000078ffff344cffff681c
:104048000000000000000000000078ffff344cff73
:10405800ff680000000000000000000078ffff3447
:104068004cffff680000000000000000000078ff1f
:10407800ff344cffff680000000000000000000053
:1040880078ffff3442ffff6e0000000000000000d0
:1040980000007fffff262dffff87000000000000c3
:1040a800000000009bffff0b04f3ffc700000000a7
:1040b800000000000001dcffdb0000a7ffff40005c
:1040c8000000000000000056ffff8100002ffbffea
:1040d800e63300000000000039eeffeb1700000097
:1040e80073fffffcad684c4c68aefdfffb4e000053
:1040f80000000068f5ffffffffffffffffe63d0040
:10410800000000000000157bbee7f9f9e3b56a0c72
:1041180000000000d3fff2080000000000000000cb
:1041280000000df7ffd27affff53000000000000e7
:10413800000000005cffff7922ffffab00000000d9
:10414800000000000000b3ffff2100c8fff60c00cc
:104158000000000000000011f9ffc700006fffff1a
:104168005a000000000000000063ffff6e00001905
:10417800fdffb20000000000000000bafffd1800bb
:104188000000bdfff91000000000000015fcffbc96
:104198000000000064ffff6200000000000069ffeb
:1041a800ff630000000011f9ffba000000000000e2
:1041b800c1fff9110000000000b2fffc150000006b
:1041c800001afdffb100000000000059ffff690060
:1041d80000000070ffff580000000000000bf4ff13
:1041e800c100000000c8fff40a0000000000000041
:1041f800a6fffd1b00001fffffa500000000000038
:1042080000004dffff71000077ffff4c0000000029
:104218000000000006eeffc50000cbffee05000021
:10422800000000000000009bfffd161cffff9a0025
:1042380000000000000000000042ffff616affff6d
:10424800410000000000000000000002e6ffa4abef
:10425800ffe602000000000000000000000090ffe0
:10426800e3e6ff8f000000000000000000000000ef
:1042780037ffffffff3600000000000000000000cd
:10428800000000ddffffdd0000000000000000006e
:10429800000000000085ffff84000000000000000f
:1042a80084ffff4f0000000000000000b1ffff6125
:1042b800000000000000000070ffff6242ffff8e58
:1042c8000000000000000006f3ffffac0000000043
:1042d80000000000aeffff2008f7ffcd000000003f
:1042e80000000042fffffff205000000000000018f
:1042f800ebffdd0000befffd100000000000008b9a
:10430800ffedffff430000000000002cffff9b00b3
:10431800007cffff4c000000000000d4ff9feeff70
:104328008e0000000000006bffff5900003afffffd
:104338008b00000000001cffff62b1ffd9000000e5
:10434800000000aaffff17000004f3ffcb000000e5
:10435800000065ffff206dffff240000000000e85b
:10436800ffd400000000b6fffc0e00000000aeff06
:10437800e00023ffff700000000028ffff9200000c
:10438800000074ffff4900000005f1ff990000d903
:10439800ffbb0000000067ffff4f0000000032ff76
:1043a800ff8900000040ffff5000008ffff90d005b
:1043b8000000a5fffd100000000002edffc800008e
:1043c8000088fffa0d000045ffff52000000e4ffdf
:1043d800ca000000000000aefffb0c0000d1ffbfc8
:1043e80000000006f3ff9d000023ffff8800000087
:1043f8000000006cffff47001affff760000000076
:10440800b0ffe7010062ffff460000000000002a3d
:10441800ffff850060ffff2d0000000065ffff32f1
:1044280000a0fff90a00000000000000e7ffbf003d
:10443800a0ffe400000000001bffff7300ddffc1c8
:104448000000000000000000a6fff403e0ff9c004d
:104458000000000000d0ffb419ffff7f000000003b
:104468000000000064ffff42ffff5300000000004f
:104478000086ffef50ffff3c000000000000000036
:1044880021ffff98fffb0f0000000000003bffff2b
:104498009afff405000000000000000000dfffeaba
:1044a800ffc20000000000000003edffebffb800b2
:1044b8000000000000000000009effffff790000e0
:1044c800000000000000a6ffffff750000000000cc
:1044d80000000000005cffffff300000000000004b
:1044e80000005cffffff3300000000000000000038
:1044f8000019ffffe701000000000000000014fda4
:10450800ffee02000000000027f8ffd605000000bb
:10451800000000000037feffa200007fffff7700c9
:1045280000000000000003ceffec15000006d7ffd6
:10453800f41d0000000000006dffff600000000097
:104548003efeffac000000000017f0ffbf000000b7
:104558000000009cffff4600000000a3fff82600b3
:10456800000000000011e9ffda0600003fffff7db0
:1045780000000000000000005affff7b0005d4ff88
:10458800d506000000000000000000b8fff51f7508
:10459800fffe3c0000000000000000000022f6ffc3
:1045a800bff3ff99000000000000000000000000b9
:1045b80077ffffffe8100000000000000000000087
:1045c800000004e9ffff7800000000000000000080
:1045d8000000000053ffffffde090000000000009c
:1045e80000000000000de4ffdbffff870000000073
:1045f8000000000000000092fff928adfffa2c002f
:10460800000000000000000034fdff86001ef5ffda
:10461800c5010000000000000003ceffe00a000012
:104628007bffff660000000000000072ffff4f00e4
:10463800000007dbffee1600000000001df3ffb4ca
:10464800000000000049ffffa50000000000b0ffc7
:10465800f621000000000000b0ffff4500000051f7
:10466800ffff7c0000000000000020f6ffdc0800cf
:104678000ce3ffda0700000000000000007effffe7
:10468800840090ffff4500000000000000000008c3
:10469800dcfff92abdfffe33000000000000000027
:1046a8000034ffffb737ffffb9000000000000002b
:1046b8000000bcfffe3200b1ffff40000000000018
:1046c800000042ffffa900002dfdffc70000000009
:1046d800000000c9fffb26000000a5ffff4e0000f8
:1046e80000000052ffff9a0000000023fbffd302e6
:1046f80000000003d6fff71c000000000099ffff30
:104708005c00000062ffff8c0000000000001bf747
:10471800ffdd050007e1fff11300000000000000c5
:104728008dffff690071ffff7d00000000000000a1
:104738000014f2ffe617ebffea0c0000000000008f
:1047480000000081ffffd9ffff6f0000000000009c
:10475800000000000eecffffffe107000000000072
:1047680000000000000075ffffff6000000000006f
:104778000000000000000009eeffe6030000000052
:10478800000000000000000000dcffd8000000006e
:1047980000000000000000000000dcffd80000005e
:1047a8000000000000000000000000dcffd800004e
:1047b800000000000000000000000000dcffd8003e
:1047c80000000000000000000000000000dcffd82e
:1047d8000000000000000000000000000000dcfff6
:1047e800d80000000000000000000000000000dc0d
:1047f800ffd80000000000000000000000000000da
:10480800dcffd800000000000000000080ffffff70
:10481800ffffffffffffffffffffb080ffffffff6e
:10482800ffffffffffffffffffaf22444444444464
:104838004444444444dbffff5200000000000000f1
:104848000000005cffffb000000000000000000056
:104858000013eafff21c0000000000000000000046
:10486800a0ffff6b0000000000000000000042fff6
:10487800ffc70200000000000000000008dbfffa8c
:104888002c0000000000000000000086ffff8500eb
:104898000000000000000000002dfaffda08000008
:1048a8000000000000000002c7ffff4100000000f8
:1048b8000000000000006cffff9e000000000000e8
:1048c800000000001bf1ffea1200000000000000d9
:1048d800000000afffff5a000000000000000000c9
:1048e8000052ffffb8000000000000000000000eaa
:1048f800e5fff5200000000000000000000096ff22
:10490800ff740000000000000000000039feffce28
:104918000300000000000000000005d4fffc330085
:104928000000000000000000007cffffbc4444447d
:104938004444444444444442dbffffffffffffff7d
:10494800fffffffffffffcdcffffffffffffffff95
:10495800fffffffffffc000098ffffffffffff20a6
:1049680098ffffffffffff2098fffd4444444408e1
:1049780098fffc000000000098fffc000000000009
:1049880098fffc000000000098fffc0000000000f9
:1049980098fffc000000000098fffc0000000000e9
:1049a80098fffc000000000098fffc0000000000d9
:1049b80098fffc000000000098fffc0000000000c9
:1049c80098fffc000000000098fffc0000000000b9
:1049d80098fffc000000000098fffc0000000000a9
:1049e80098fffc000000000098fffc000000000099
:1049f80098fffc000000000098fffc000000000089
:104a080098fffc000000000098fffc000000000078
:104a180098fffc000000000098fffc000000000068
:104a280098ffffffffffff2098ffffffffffff201a
:104a3800284444444444440886fffa140000000013
:104a480000000029ffff6b0000000000000000cc00
:104a5800ffc800000000000000006fffff260000f4
:104a6800000000000016fbff8300000000000000ab
:104a780000b5ffdf010000000000000058ffff3d07
:104a88000000000000000009f1ff9b00000000008a
:104a98000000009efff0080000000000000041ff39
:104aa800ff550000000000000001e3ffb200000015
:104ab800000000000088fffa150000000000000058
:104ac8002bffff6d0000000000000000ceffca00b1
:104ad8000000000000000071ffff28000000000037
:104ae800000017fcff850000000000000000b7ff71
:104af800e101000000000000005affff3f00000035
:104b0800000000000af3ff9d000000000000000004
:104b1800a0fff1090000000000000043ffff57005c
:104b280000000000000002e4ffb5000040ffffffa6
:104b3800ffffff7840ffffffffffff781144444469
:104b480058ffff78000000001cffff7800000000fd
:104b58001cffff78000000001cffff780000000029
:104b68001cffff78000000001cffff780000000019
:104b78001cffff78000000001cffff780000000009
:104b88001cffff78000000001cffff7800000000f9
:104b98001cffff78000000001cffff7800000000e9
:104ba8001cffff78000000001cffff7800000000d9
:104bb8001cffff78000000001cffff7800000000c9
:104bc8001cffff78000000001cffff7800000000b9
:104bd8001cffff78000000001cffff7800000000a9
:104be8001cffff78000000001cffff780000000099
:104bf8001cffff7840ffffffffffff7840ffffff2c
:104c0800ffffff78114444444444441f000000005f
:104c18000000bbff40000000000000000000000092
:104c2800002fffffc000000000000000000000008f
:104c380000a3ffffff40000000000000000000008c
:104c48001cfaf891ffc000000000000000000000fe
:104c58008cffa00deeff4100000000000000000ed8
:104c6800f1ff30007effc10000000000000000746a
:104c7800ffc100000ff0ff4100000000000005e345
:104c8800ff5100000082ffc10000000000005dff2e
:104c9800df0200000011f2ff420000000000d0ff18
:104ca80072000000000087ffc20000000045fff30b
:104cb8000f000000000014f4ff42000000baff9249
:104cc800000000000000008bffc200002efffe2540
:104cd8000000000000000016f6ff4300a2ffb3002a
:104ce80000000000000000008fffc300044444449b
:104cf800444444444444444444441910ffffffffdf
:104d0800ffffffffffffffffff6010ffffffffff39
:104d1800ffffffffffffffff60000000a3ffff9cf6
:104d280000000011dbfffc2b00000025eaffc10199
:104d380000000035f1ff680000000033e9f51f00ae
:104d48000000002881c0eafbf2cf871700000000ae
:104d580091ffffffffffffffffe92900000070ff41
:104d6800de8b594b67c9ffffc700000011450100e2
:104d780000000001b7ffff24000000000000000051
:104d8800000052ffff530000000000000000000078
:104d980034ffff6400000000000e2f3c434467ff0f
:104da800ff6800001487dbffffffffffffffff68be
:104db800003aedffffffffffffffffffff6810e86e
:104dc800ffffb7512109010034ffff6866ffffa20a
:104dd80000000000000038ffff6893ffff3200006a
:104de8000000000055ffff6897ffff2c000000003f
:104df8000000abffff6874ffff7c0000000000703c
:104e0800ffffff6823fbfffc9a554b71c9ffabf806
:104e1800ff680072feffffffffffffaf06cdff68d0
:104e2800000040b1ebfae8bd5d00009cff6800009f
:104e380074ffff3000000000000000000000007454
:104e4800ffff30000000000000000000000074ffb9
:104e5800ff30000000000000000000000074ffffa9
:104e680030000000000000000000000074ffff3068
:104e7800000000000000000000000074ffff2e008a
:104e88000000000000000000000074ffff28066b0f
:104e9800c9edf7db952100000074ffff31c8ffff63
:104ea800fffffffff758000074ffffc9ffb2644a15
:104eb80059a3fefffd3d0074ffffff6900000000dd
:104ec8000053feffd40074ffffcd00000000000077
:104ed80000a9ffff3a74ffff7b00000000000000fc
:104ee8004bffff7c74ffff4e00000000000000171e
:104ef800ffffaa74ffff380000000000000000fb5d
:104f0800ffbd74ffff310000000000000000f3ff48
:104f1800c874ffff3a0000000000000000fcffbc5e
:104f280074ffff54000000000000001affffa8747f
:104f3800ffff850000000000000050ffff7974ffac
:104f4800ffd802000000000000aeffff3774ffff2b
:104f5800ff79000000000055ffffcf0074fff9d76c
:104f6800ffba664a57a0fdfffc380074ffc61cd57f
:104f7800fffffffffffff652000074ff8c000a7569
:104f8800cdeff7db931f00000000000000000000d9
:104f98002d8bd0ecf6dbbc7a1600000494feffffe4
:104fa800ffffffffff2d00009bffffeb85524c74b6
:104fb800c3d2000043ffffd2140000000000090024
:104fc80000b7fffe2f000000000000000009f9fff5
:104fd800c700000000000000000032ffff8c000046
:104fe800000000000000004cffff6d000000000002
:104ff8000000000055ffff630000000000000000f3
:10500800004effff6b00000000000000000037ffab
:10501800ff8a0000000000000000000dfcffc40033
:10502800000000000000000000c1fffe2d0000008d
:105038000000000000004cffffcf1000000000003f
:10504800090600009fffffe67e4e4b639ef1240099
:10505800000798ffffffffffffffff24000000008d
:105068003b9bd7f2fbe9bb6507000000000000008e
:105078000000000000000000bcffe8000000000085
:1050880000000000000000bcffe800000000000075
:10509800000000000000bcffe80000000000000065
:1050a8000000000000bcffe8000000000000000055
:1050b80000000000bcffe800000000000000000045
:1050c800000000bcffe80000000263bfecf7de9ab6
:1050d8002700baffe8000010c4fffffffffffff53d
:1050e80055adffe80001bfffffdb714b568ef2faaa
:1050f800d3ffe8005cffffcb0c0000000022e9ffb3
:10510800ffe800c3fffe2f00000000000069ffff5a
:10511800e809fcffca0000000000000012fdffe8db
:1051280035ffff8e0000000000000000dcffe849aa
:10513800ffff6e0000000000000000c0ffe854ff01
:10514800ff630000000000000000b5ffe84bffff10
:105158006b0000000000000000baffe838ffff877e
:105168000000000000000000ccffe80cfdffbd00bf
:1051780000000000000005f4ffe800c9fffb210063
:1051880000000000004fffffe80064ffffbd0700bc
:1051980000000016dbffffe80003c7ffffd66e4ada
:1051a8005387ebfad2ffe8000015ccffffffffffa3
:1051b800fff65778ffe80000000469c3eff7de9bad
:1051c800290050ffe80000000000000038a3e1fac1
:1051d800e8c56a0b0000000000007effffffffff2c
:1051e800ffffd8250000000080ffffd66f4a57a2b6
:1051f800fdffe10d00002bfaffbe08000000006a69
:10520800ffff8d00009efff722000000000002d77c
:10521800ffe90303ebffb9000000000000008dff69
:10522800ff3328ffffa64444444444444494ffff0a
:105238004e3fffffffffffffffffffffffffff6284
:1052480051ffffffffffffffffffffffffff64436b
:10525800ffff6a00000000000000000000002affb5
:10526800ff88000000000000000000000008f2ffb6
:10527800c9000000000000000000000000a3ffffbc
:105288003c000000000000000000000034fbffe1cb
:1052980028000000000000062e0000007bfffff839
:1052a8009c5b48506ca2ecac000000006efaffff5b
:1052b800ffffffffffffab00000000002080cae8ef
:1052c800fcf4dbad66100000000000000041b2ea0b
:1052d800f9e3ba46000000006cfeffffffffff5233
:1052e8000000001cfafff8814e66a30b0000007254
:1052f800ffff690000000000000000a3ffff0f008f
:1053080000000000000000b5fff2000000000000ef
:10531800000000bfffe80000000000001874d0ff84
:10532800fffffffffff400008cffffffffffffff01
:10533800fff40000254444ceffee444444400000fe
:10534800000000bcffe8000000000000000000bcf6
:10535800ffe8000000000000000000bcffe80000bb
:1053680000000000000000bcffe800000000000092
:10537800000000bcffe8000000000000000000bcc6
:10538800ffe8000000000000000000bcffe800008b
:1053980000000000000000bcffe800000000000062
:1053a800000000bcffe8000000000000000000bc96
:1053b800ffe8000000000000000000bcffe800005b
:1053c80000000000000000bcffe800000000000032
:1053d800000000bcffe8000000000000000000bc66
:1053e800ffe80000000000000000000262c0ecf7c7
:1053f800db93230046ffe800000cbfffffffffff21
:10540800fff5566affe80000b1ffffdb704a5895c8
:10541800f6fac7ffe8004cffffc90b00000000299f
:10542800ebffffe800b7fffd2a0000000000006660
:10543800ffffe806f9ffc4000000000000000efab4
:10544800ffe831ffff8b0000000000000000d6ffde
:10545800e849ffff6c0000000000000000bdffe805
:1054680054ffff620000000000000000b1ffe84a9e
:10547800ffff6b0000000000000000b5ffe835ffeb
:10548800ff870000000000000000c5ffe809fcffde
:10549800be0000000000000002eeffe800c0fffbb5
:1054a8002100000000000045ffffe80059ffffbe93
:1054b800080000000016d6ffffe80001bfffffd775
:1054c8006f4a5488ebfbdaffe8000011c9ffffffc1
:1054d800fffffff960afffe80000000368c2eef8c5
:1054e800e09e2e00b3ffe70000000000000000006f
:1054f800000000bbffdc000000000000000000000e
:105508000000deffc60000000000000000000000f0
:1055180038ffff92000b3e0000000000000019d881
:10552800ffff390018ffde9a6f53485187ecffffe1
:10553800ab000017ffffffffffffffffffffb40dea
:105548000000003283bbe0f4fdf3dca54900000055
:1055580074ffff300000000000000000000000742d
:10556800ffff30000000000000000000000074ff92
:10557800ff30000000000000000000000074ffff82
:1055880030000000000000000000000074ffff3041
:10559800000000000000000000000074ffff300061
:1055a8000000000000000000000074ffff2d015ef5
:1055b800bdeaf9e6b14e00000074ffff2abfffff05
:1055c800ffffffffff9a000074ffffbfffc16c4c95
:1055d8005d98fcffff5a0074ffffff810000000088
:1055e8000050ffffc20074ffffdb03000000000053
:1055f80000cafff70274ffff8400000000000000eb
:105608009affff1274ffff520000000000000081a3
:10561800ffff1b74ffff390000000000000080ff3f
:10562800ff1c74ffff300000000000000080ffff37
:105638001c74ffff300000000000000080ffff1c0a
:1056480074ffff300000000000000080ffff1c74a2
:10565800ffff300000000000000080ffff1c74ff07
:10566800ff300000000000000080ffff1c74fffff7
:10567800300000000000000080ffff1c74ffff30b6
:105688000000000000000080ffff1c74ffff3000d6
:1056980000000000000080ffff1c74ffff300000c6
:1056a800000000000080ffff1c00000033e5cc0f65
:1056b80097ffff5e98ffff5e33e5cc0f0000000008
:1056c8000000000074ffff3074ffff3074ffff30ec
:1056d80074ffff3074ffff3074ffff3074ffff303a
:1056e80074ffff3074ffff3074ffff3074ffff302a
:1056f80074ffff3074ffff3074ffff3074ffff301a
:1057080074ffff3074ffff300000000033e5cc0f5a
:105718000000000097ffff5e0000000098ffff5e9a
:105728000000000033e5cc0f00000000000000007e
:1057380000000000000000000000000074ffff30bf
:105748000000000074ffff300000000074ffff300d
:105758000000000074ffff300000000074ffff30fd
:105768000000000074ffff300000000074ffff30ed
:105778000000000074ffff300000000074ffff30dd
:105788000000000074ffff300000000074ffff30cd
:105798000000000074ffff300000000074ffff30bd
:1057a8000000000074ffff300000000074ffff30ad
:1057b8000000000074ffff300000000074ffff309d
:1057c8000000000074ffff300000000074ffff308d
:1057d800000000007fffff2800000000b3fffd0d60
:1057e80053554d92ffffc300a8fffffffff93b0091
:1057f8007be9fbeeb73a000074ffff2800000000c9
:1058080000000000000074ffff28000000000000f6
:105818000000000074ffff280000000000000000e6
:10582800000074ffff2800000000000000000000d6
:1058380074ffff280000000000000000000074ff53
:10584800ff280000000000000000000074ffff288f
:10585800000000000044faffcd0c74ffff28000090
:10586800000030f2ffde170074ffff280000001f61
:10587800e6ffeb26000074ffff28000012d7fff5b3
:105888003700000074ffff280009c5fffc4d000029
:10589800000074ffff2702afffff66000000000052
:1058a80074ffff2180ffff8100000000000074ffeb
:1058b800ff5afdfff21000000000000074fffff225
:1058c800ffffffa800000000000074ffffff8ab977
:1058d800ffff5f000000000074ffff7c0019ecff71
:1058e800f3230000000074ffff28000051ffffc9e8
:1058f8000400000074ffff280000009dffff8600e1
:10590800000074ffff280000000cdcfffd3f0000d2
:1059180074ffff280000000038fbffe3110074ff4c
:10592800ff2800000000007fffffac0074ffff2885
:10593800000000000003c6ffff64000074ffff3092
:1059480074ffff3074ffff3074ffff3074ffff30c7
:1059580074ffff3074ffff3074ffff3074ffff30b7
:1059680074ffff3074ffff3074ffff3074ffff30a7
:1059780074ffff3074ffff3074ffff3074ffff3097
:1059880074ffff3074ffff3074ffff3074ffff3087
:1059980074ffff3074ffff3074ffc2000672cbf251
:1059a800f1d3831300000467c2ecf8e0a02a0000da
:1059b80074ffe711ceffffffffffffde1e14c9ffd4
:1059c800fffffffffff6450074ffffbfffa95d4c17
:1059d80071dfffffb5bbffc3694b66c1ffffe5057c
:1059e80074ffffff64000000000fe4ffffff930057
:1059f80000000002b4ffff4c74ffffcd0000000060
:105a0800000079ffffec0900000000003dffff8067
:105a180074ffff7c0000000000004fffffa20000a1
:105a28000000000013ffff9674ffff4e0000000007
:105a3800000038ffff7700000000000000fcff9f17
:105a480074ffff3800000000000038ffff67000007
:105a58000000000000fcffa074ffff300000000001
:105a6800000038ffff6400000000000000fcffa0f9
:105a780074ffff3000000000000038ffff640000e2
:105a88000000000000fcffa074ffff3000000000d1
:105a9800000038ffff6400000000000000fcffa0c9
:105aa80074ffff3000000000000038ffff640000b2
:105ab8000000000000fcffa074ffff3000000000a1
